{
  "contractName": "BaToken",
  "abi": [
    {
      "constant": true,
      "inputs": [],
      "name": "totalSupply",
      "outputs": [
        {
          "name": "",
          "type": "uint256"
        }
      ],
      "payable": false,
      "stateMutability": "view",
      "type": "function",
      "signature": "0x18160ddd"
    },
    {
      "inputs": [],
      "payable": false,
      "stateMutability": "nonpayable",
      "type": "constructor",
      "signature": "constructor"
    }
  ],
  "bytecode": "0x608060405234801561001057600080fd5b50620f4240600081905550609e806100296000396000f3fe608060405260043610603f576000357c0100000000000000000000000000000000000000000000000000000000900463ffffffff16806318160ddd146044575b600080fd5b348015604f57600080fd5b506056606c565b6040518082815260200191505060405180910390f35b6000548156fea165627a7a723058209f17b26d589e832120dd9b27a0e72a694ad8ee3bfec2aa29ff0f5b53617db5c70029",
  "source": "pragma solidity >=0.4.21 <0.6.0;\r\n\r\n\r\n/**\r\n * The BaToken contract does this and that...\r\n */\r\ncontract BaToken {\r\n\r\n  uint256 public totalSupply;\r\n\r\n  constructor () public{\r\n    totalSupply = 1000000;\r\n  }\r\n\r\n}\r\n",
  "sourcePath": "C:/Users/wilpa/Documents/projects/Solidity/token_sale/contracts/BaToken.sol",
  "compiler": {
    "name": "solc",
    "version": "0.5.0+commit.1d4f565a.Emscripten.clang"
  },
  "schemaVersion": "3.0.2",
  "updatedAt": "2019-03-02T18:55:34.621Z",
  "devdoc": {
    "methods": {}
  },
  "userdoc": {
    "methods": {},
    "notice": "The BaToken contract does this and that...\r"
  }
}